:020000040800F2
:10000000808C0020E10100083B1900085111000814
:1000100037190008510D00080B27000800000000E8
:10002000000000000000000000000000490100087E
:10003000530E0008000000008D010008AD210008EB
:10004000FB010008FB010008FB010008FB010008A0
:10005000FB010008FB010008FB010008FB01000890
:10006000FB010008FB010008550E0008FB01000819
:10007000FB010008FB010008550D0008FB0100080A
:10008000FB010008890D0008FB010008FB010008C6
:10009000FB010008FB010008FB010008FB01000850
:1000A000FB010008FB010008FB010008FB01000840
:1000B000FB010008FB010008FB010008FB01000830
:1000C000FB010008FB010008FB010008FB01000820
:1000D000FB01000825220008592200088D22000893
:1000E000FB010008FB010008FB010008FB01000800
:1000F000FB010008FB010008FB010008FB010008F0
:10010000FB010008FB010008FB010008FB010008DF
:10011000FB010008FB010008FB010008FB010008CF
:10012000FB010008FB010008FB010008FB010008BF
:10013000DFF810D000F0B8FB004800470D30000891
:10014000AFF30080808C0020224B19680868B0E86B
:10015000F00F80F30988BFF36F8F4FF0000080F33A
:1001600011884EF00D0E7047000000000648006830
:10017000006880F3088862B661B6BFF34F8FBFF3A3
:100180006F8F00DF00BF00BF08ED00E0EFF30980D4
:10019000BFF36F8F0F4B1A6820E9F00F106008B59E
:1001A0004FF0BF0080F31188BFF34F8FBFF36F8F05
:1001B00004F0E6F84FF0000080F31188BDE8084035
:1001C00019680868B0E8F00F80F30988BFF36F8FF3
:1001D000704700BF38000020EFF305807047000033
:1001E0000648804706480047FEE7FEE7FEE7FEE7D1
:1001F000FEE7FEE7FEE7FEE7FEE7FEE7BD210008BB
:100200003101000840EA01039B0703D009E008C957
:10021000121F08C0042AFAD203E011F8013B00F8CB
:10022000013B521EF9D2704780EA010210B502F07C
:100230000043400022D04A001FD0010E01EB1261A2
:10024000C0F35600C2F3560240F4000042F400022C
:10025000A0FB022000047F39140400D0401C50EAA7
:10026000124001D44000491EC2B20C0604EBD0106B
:10027000401C4008802A02D003E0002010BD20F07E
:100280000100002900DA0020184310BD30B480EAD4
:10029000010202F0004530F0004221F0004013D08E
:1002A00090B1C30DD40DC2F31601C0F31600E41AC9
:1002B00041F4000140F400027D34914201D3641CFA
:1002C00000E04900002C02DA30BC002070474FF4F7
:1002D00000000023914201D3891A034340084FEAEA
:1002E0004101F7D151B1914202D14FF0004105E0F7
:1002F00002D24FF0010101E06FF0010103EBC450A5
:10030000284430BC00F065B92DE9FE4F81EA0304B2
:1003100004F0004421F0004100944FF0000B23F062
:10032000004350EA01045ED052EA03045BD0C3F3F9
:100330000A54C1F30A552C44A4F2F3340194A0FBEF
:100340000254C1F3130141F48011C3F3130343F4C6
:10035000801301FB024400FB034E840A970A44EA1F
:10036000815447EA8357A4FB076802958D0A05FB71
:1003700007854FEA932C04FB0C542705029D4FEA96
:10038000065847EA1637B5EB08056EEB070C870EE3
:10039000920E47EA811742EA8312A7FB0201B6EBED
:1003A0000B0164EB00042B0D43EA0C335E1844EBA5
:1003B0001C50DA465146E7FB0201C5F313044FEA2D
:1003C0000B3343EA14534FEA0432019C43EA060319
:1003D000A4F10C040294009CCDE900B400F03FF9B4
:1003E00003B0BDE8F08F00200146F9E72DE9F04D9C
:1003F00081EA030404F0004B21F0004514464FF05D
:10040000000A23F0004150EA050220D054EA01021C
:100410001DD0C5F30A570246C5F31303C1F31300F9
:10042000C1F30A5640F4801543F48013A7EB060885
:10043000101BD64608F2FD3873EB050002D308F115
:10044000010801E092185B41B8F1000F03DA0020C7
:100450000146BDE8F08D00204FF480110646844629
:100460000EE0171B73EB050705D3121B63EB0503A7
:1004700006434CEA010C49084FEA300092185B41F0
:1004800050EA0107EDD152EA030012D082EA0400DB
:1004900083EA0501084305D0101BAB4106D20122B7
:1004A000002306E000224FF0004302E06FF001025B
:1004B00053101AEB06004CEB085110EB0A0041EB0D
:1004C0000B01BDE8F04D00F0BBB8C10F80EAE07051
:1004D0000844CA079623002100F084B8962300221E
:1004E000114600F07FB800F0004230F000400AD022
:1004F000C10D01F56071C0F3160042EA0151C20856
:1005000040071143704700200146704701F0004347
:1005100030B421F0004150EA010206D00A0DA2F5E4
:100520006072C1F31301002A02DC30BC0020704766
:10053000440F44EAC104C100E01830BC00EBC250D3
:1005400000F047B830B50B460146002020220124B8
:1005500009E021FA02F59D4205D303FA02F5491B91
:1005600004FA02F52844151EA2F10102F1DC30BDA7
:100570002DE9F05F0546002092469B4688460646D8
:10058000814640241BE0284641464746224600F06B
:10059000ACF953465A46C01A914110D31146184639
:1005A000224600F093F92D1A67EB01084F462246C8
:1005B0000120002100F08AF917EB00094E41201EAE
:1005C000A4F10104DFDC484631462A464346BDE833
:1005D000F09F0029A8BF7047401C490008BF20F0C9
:1005E0000100704710B4B0FA80FC00FA0CF050EA39
:1005F000010404BF10BC704749B1CCF1200421FABA
:1006000004F411FA0CF118BF012121430843A3EBB4
:100610000C01CB1D4FEA00614FEA102042BF0020C1
:1006200010BC704700EBC35010440029A4BF10BC9D
:100630007047401C490008BF20F0010010BC704703
:1006400010B5141E73F1000408DA401C41F10001DA
:1006500092185B411A4301D120F0010010BD2DE931
:10066000F04D92469B4611B1B1FA81F202E0B0FA28
:1006700080F22032904600F029F904460F4640EA05
:100680000A0041EA0B0153465A46084313D011466B
:1006900053EA010019D0C8F14002504600F025F994
:1006A00005460E4650465946424600F00FF90843AB
:1006B00005D0012004E020463946BDE8F08D002039
:1006C000054346EAE0762C4337430A986305E40A7B
:1006D000A0EB08000022FD0A44EA47540A3002D584
:1006E00000200146E9E7010510196941DDE90845E7
:1006F00000196941BDE8F04DA2E72DE9FE4F8046A3
:1007000081EA0300C00F0C46009021F0004123F065
:100710000045B8EB0200A94105D24046214690466B
:100720001C460B46024623F00040104347D0270DDD
:10073000C7F30A00C3F30A510290401A01904028FF
:100740006BDAC3F3130040F4801B0098924620B18B
:100750000023D2EB030A63EB0B0B01985946C0F15F
:100760004002504600F0B2F806460D465046594643
:10077000019A00F0CAF810EB08006141002487EAF2
:10078000115284EAE7731A4340D0009A62B3019A87
:10079000012A4FEA075215DC001B61EB02014FF002
:1007A000004202EA0752CDE90042001C41F58011E7
:1007B00032462B46FFF753FF03B0BDE8F08F4046AB
:1007C0002146F9E7001B61EB0201001C41F5801393
:1007D00000185B412018A2F5001747EB030140EA1F
:1007E000D570B6196D4111E06D084FEA360645EA3D
:1007F000C0754FEA0752001B61EB0201001C41F576
:10080000801149084FEA30000019514132462B4609
:1008100003B0BDE8F04FFFF713BF0098012240007E
:100820000023D0EB020263EBE073009821464FEA0D
:10083000E074B8EB000061EB0401E9E783F00043EA
:100840005BE781F0004158E7C1F30A52C1F313019D
:1008500040F2FF3341F480119A4202DA002001464F
:10086000704740F233439A42A2F2334202DC5242D2
:1008700000F03BB800F02AB830B5041E71F1000456
:1008800004DB4FF00044404264EB0101141E73F19D
:10089000000405DB1C464FF00043524263EB0403A7
:1008A000994208BF904230BD064C074D06E0E06813
:1008B00040F0010394E8070098471034AC42F6D3A7
:1008C000FFF73AFC3C5000085C500008202A04DB8B
:1008D000203A00FA02F1002070479140C2F1200353
:1008E00020FA03F3194390407047202A04DB203A92
:1008F00021FA02F00021704721FA02F3D040C2F140
:1009000020029140084319467047202A06DBCB1786
:10091000203A41FA02F043EAE07306E041FA02F3BA
:10092000D040C2F12002914008431946704770B58B
:100930008C1810F8015B15F0070301D110F8013B8A
:100940002A1106D110F8012B03E010F8016B01F811
:10095000016B5B1EF9D12B0705D40023521E0DD469
:1009600001F8013BFAE710F8013BCB1A921C03E0B7
:1009700013F8015B01F8015B521EF9D5A142D8D3EF
:10098000002070BD21B1826842F00102826003E064
:10099000826822F0010282607047000000B585B0D5
:1009A0000121480201F014FA4FF4004001F0E4F98B
:1009B00000208DF8050003904FF460200290002085
:1009C000009001208DF8100000208DF80400694689
:1009D0000D4800F051F801210B48FFF7D3FF0A48FA
:1009E00000F00AF900BF084800F03BF80028FAD1EF
:1009F000054800F011F900BF034800F032F8002864
:100A0000FAD105B000BD00000024014038B5012135
:100A1000102001F0DDF900208DF8030000240DE026
:100A2000084830F83400ADF80000064901EBC40175
:100A30004868694600F0B8FA601CC4B2012CEFDBCC
:100A400038BD0000085000080146C86C80B27047ED
:100A50000246002013680B400BB1012000E000208B
:100A60007047014600208A6802F008020AB101209E
:100A700000E000207047000030B50246002000234F
:100A800050680F4C20400D790C6844EA052420433F
:100A9000506090680B4C2040D1E902542C434D79B2
:100AA00044EA450420439060D06A20F470000C7C36
:100AB000641EE4B2234340EA0350D06230BD00001C
:100AC000FFFEF0FFFDF7F1FF2DE9F84F8246002110
:100AD000174800F096F8174810F80A10072301226B
:100AE000134800F02DF80121114800F08AF800BFEA
:100AF00002210F48FFF7ACFF0028F9D00C48FFF7A0
:100B0000A3FF0090FFF7EAFC8346FFF7ECFC0646E4
:100B10004FF06632084BFFF7F7FB04460022074B05
:100B2000FFF764FC8046FFF7F1FCBDE8F88F00009A
:100B3000002401401050000866660A400000B040E2
:100B4000F0B504460D4600200021092D11DDE068B6
:100B5000A5F10A0606EB4607072606FA07F18843C1
:100B6000A5F10A0606EB460603FA06F10843E06023
:100B70000CE0206905EB4507072606FA07F18843D4
:100B800005EB450603FA06F108432061072A0FDA50
:100B9000606B561E06EB86071F2606FA07F1884390
:100BA000561E06EB860605FA06F10843606322E04E
:100BB0000D2A0FDA206BD61F06EB86071F2606FAD2
:100BC00007F18843D61F06EB860605FA06F10843AF
:100BD000206310E0E06AA2F10D0606EB86071F26EF
:100BE00006FA07F18843A2F10D0606EB860605FA20
:100BF00006F10843E062F0BD816841F008018160C0
:100C0000704721B1826842F4A002826003E08268EA
:100C100022F4A00282607047816841F00401816083
:100C2000704710B5FFF7F2FEFFF7B8FE10BD0000E9
:100C300008B50121402001F0CBF848208DF80300D1
:100C40004FF4F040ADF800006946024800F0ACF9FE
:100C500008BD00000018014010B503F071F901F063
:100C6000EBFB01F049FB01F007FD01F07DFB0024E7
:100C700008E0064951F824100868012101F02FFB13
:100C8000601CC4B2032CF4DB10BD0000B8000020CF
:100C900038B50121042001F09BF80121082001F062
:100CA00097F80121102001F093F8002429E0142086
:100CB0008DF8030003208DF8020004EB8400124934
:100CC00001EB80008088ADF8000004EB84010E4A3F
:100CD00002EB81018868694600F066F904EB840044
:100CE000094901EB80008089ADF8000004EB840124
:100CF000054A02EB81010869694600F055F9601C5C
:100D0000C4B2032CD3DB38BDD000002008B503F0FB
:100D1000AFFE0090642413E00020FFF7D5FE81466B
:100D2000FFF7E1FB0746074A074BFFF7EDFA0546D9
:100D3000FFF7ECFB054908602146684603F04EFECC
:100D4000EAE70000CDCCCCCCCCCC2740B0000020D2
:100D500000BFFEE710B54FF4005000F03DF8012849
:100D60000FD10020074948720846406800684FF6D6
:100D7000FE7108400349496808604FF4005000F0D4
:100D80001DF810BDD482002010B54FF0007000F0A7
:100D900023F801280FD1002007494872084640680F
:100DA00000684FF6FE7108400349496808604FF03B
:100DB000007000F003F810BDE882002000F08051C0
:100DC00011B10349086001E0024948607047000022
:100DD000040402400000024001460020002201F00D
:100DE000805313B1054B1A6801E0054B1A6802EAFB
:100DF00001030BB1012000E0002070470004024015
:100E0000000002401AB103680B43036002E003686C
:100E10008B430360704710B50022026847F6F073F9
:100E20009A430C6A8B6823430C6923434C69234320
:100E30008C692343CC6923434C6A23438C6A234344
:100E40001A430260CB6843600B6883604B68C360E1
:100E500010BD704708B500200090102000F026F863
:100E6000012817D1102000F01BF803F0F1FD012834
:100E700010D069460848006803F0FAFB00BF0098EC
:100E800038B14FF0805005490860BFF34F8FBFF372
:100E90006F8F00BF08BD0000A000002004ED00E03F
:100EA0000149086070470000140401400146002019
:100EB0000022074B1B6803EA0102054B14331B6831
:100EC0000B4013B10AB1012000E000207047000080
:100ED00000040140002123498279002A3AD00A46C1
:100EE000126803689A430B461A600A1D1268036869
:100EF0009A430B1D1A60027911440A6803681A4369
:100F00000A60184A0832126803689A43154B08337E
:100F10001A601A1D126803689A43124B0C331A6048
:100F20004279102A0ED11A1F126803681A430D4B1A
:100F300008331A601A1D126803681A43094B0C33F0
:100F40001A600DE00749427911440A6803681A43A0
:100F50000A6005E0027911440A6803689A430A604E
:100F6000704700000004014030B500228B071C0FC1
:100F70000F2303FA04F20B4B8C1053F824309343E5
:100F8000084C8D1044F8253023468C1053F824303B
:100F90008C07240F00FA04F42343024C8D1044F80C
:100FA000253030BD080001402DE9F0410246002502
:100FB0000026002000230024002791F803C00CF035
:100FC0000F0591F803C00CF0100CBCF1000F03D01A
:100FD00091F802C04CEA050591F800C0BCF1000F81
:100FE00031D0146800202BE04FF0010C0CFA00F314
:100FF000B1F800C00CEA03069E4220D183004FF0F6
:101000000F0C0CFA03F7BC4305FA03FC4CEA04048A
:1010100091F803C0BCF1280F06D14FF0010C0CFA77
:1010200000FCC2F814C00AE091F803C0BCF1480FFC
:1010300005D14FF0010C0CFA00FCC2F810C0401CA6
:101040000828D1D31460B1F800C0BCF1FF0F34DD23
:10105000546800202EE000F1080C4FF0010808FA57
:101060000CF3B1F800C00CEA03069E4221D18300C4
:101070004FF00F0C0CFA03F7BC4305FA03FC4CEAE3
:10108000040491F803C0BCF1280F05D100F1080C4D
:1010900008FA0CF8C2F8148091F803C0BCF1480FAC
:1010A00007D100F1080C4FF0010808FA0CF8C2F85B
:1010B0001080401C0828CED35460BDE8F0810000A9
:1010C000F0B50A46002300240021002500F0004668
:1010D000B6F1004F02D11D4EF16901E01B4E71685F
:1010E000C0F3034583B200F44016B6F5401F08D1A3
:1010F00021F07061154E766826F07066134F7E60A1
:1011000012E000F48016B6F5801F06D1032606FA19
:1011100005F4A14341F0706106E0460D360103FA83
:1011200006F6B14341F0706122B1460D360103FA73
:1011300006F6314300F00046B6F1004F02D1034EEF
:10114000F16101E0014E7160F0BD0000000001405E
:1011500000BFFEE710B5044604EB84002B4901EB09
:1011600080008068C06804EB8401284A02EB81019A
:101170008988884304EB840102EB81018968C86097
:10118000204601F033FF04EB8400204901EB80008E
:101190000069C06804EB84011C4A02EB8101898963
:1011A000084304EB840102EB81010969C860204611
:1011B00001F01CFF04EB8400144901EB800000697E
:1011C000C06804EB8401114A02EB810189898843DC
:1011D00004EB840102EB81010969C860204601F03B
:1011E00005FF04EB8400094901EB80008068C068BA
:1011F00004EB8401054A02EB81018988084304EB72
:10120000840102EB81018968C86010BDD000002014
:1012100010B5044604EB8400214901EB800080688E
:10122000C06804EB84011E4A02EB810189880843EF
:1012300004EB840102EB81018968C860204601F05B
:10124000D5FE04EB8400164901EB80000069C068FC
:1012500004EB8401124A02EB81018989084304EB03
:10126000840102EB81010969C860204601F0BEFEDD
:1012700004EB84000A4901EB80000069C06804EBBC
:101280008401074A02EB81018989884304EB8401C8
:1012900002EB81010969C860204601F0A7FE10BD7C
:1012A000D000002010B5044604EB8400204901EB77
:1012B00080008068C06804EB84011D4A02EB810154
:1012C0008988084304EB840102EB81018968C860C6
:1012D000204601F08BFE04EB8400154901EB8000F1
:1012E0000069C06804EB8401114A02EB810189891D
:1012F000084304EB840102EB81010969C8602046C0
:1013000001F074FE04EB8400094901EB80000069E0
:10131000C06804EB8401064A02EB81018989884395
:1013200004EB840102EB81010969C860002010BD53
:10133000D000002070B504460026002500BF47E01D
:101340006806050E04EB8400234901EB8000006968
:10135000C06804EB8401204A02EB810189890843BB
:1013600004EB840102EB81010969C860204601F0A9
:101370003DFE04EB8400184901EB80008068806822
:1013800004EB8401144A02EB81018988084008B10A
:10139000012000E00020012801D1681CC5B204EB47
:1013A00084000D4901EB80000069C06804EB8401F2
:1013B000094A02EB81018989884304EB840102EB2D
:1013C00081010969C860204601F010FE701CC6B298
:1013D000082EB5DB284670BDD000002070B504464D
:1013E0000D46002600BF89E004EB8400454901EB6F
:1013F00080000069C06804EB8401424A02EB81016D
:101400008989884304EB840102EB81010969C86082
:1014100005F0800098B104EB8400114601EB8000D8
:101420008068C06804EB840102EB8101898808436D
:1014300004EB840102EB81018968C86013E004EBCE
:101440008400304901EB80008068C06804EB8401AF
:101450002C4A02EB81018988884304EB840102EB6A
:1014600081018968C860204601F0C0FD04EB84005A
:10147000244901EB80000069C06804EB8401214A23
:1014800002EB81018989084304EB840102EB8101AD
:101490000969C860204601F0A9FD04EB84001949E0
:1014A00001EB80000069C06804EB8401154A02EB7F
:1014B00081018989884304EB840102EB8101096978
:1014C000C860204601F092FD072E13D104EB840082
:1014D0000C4901EB80008068C06804EB8401094A74
:1014E00002EB81018988084304EB840102EB81014E
:1014F0008968C8606806050E701CC6B2082EFFF623
:1015000073AF70BDD000002010B5044604EB84001A
:101510002B4901EB80008068C06804EB8401284AF5
:1015200002EB81018988084304EB840102EB81010D
:101530008968C86004EB8400114601EB80000069F3
:10154000C06804EB840102EB81018989084304EB44
:10155000840102EB81010969C860204601F046FD63
:1015600004EB8400164901EB80008068C06804EB3E
:101570008401134A02EB81018988884304EB8401CA
:1015800002EB81018968C860204601F02FFD04EB61
:1015900084000B4901EB80000069C06804EB840102
:1015A000074A02EB81018989884304EB840102EB3D
:1015B00081010969C860204601F018FD10BD0000D6
:1015C000D000002010B5044604EB84001E4901EB56
:1015D00080008068C06804EB84011B4A02EB810133
:1015E0008988884304EB840102EB81018968C86023
:1015F00004EB8400114601EB80000069C06804EB35
:10160000840102EB81018989084304EB840102EB28
:1016100081010969C860204601F0E8FC04EB840000
:10162000094901EB80008068C06804EB8401064A28
:1016300002EB81018988084304EB840102EB8101FC
:101640008968C86010BD0000D000002070B5044655
:10165000002504EB84002B4901EB80008068C06802
:1016600004EB8401274A02EB81018988084304EBDB
:10167000840102EB81018968C860204601F0B6FC54
:1016800004EB84001F4901EB80000069C06804EB93
:1016900084011C4A02EB81018989084304EB84011F
:1016A00002EB81010969C860204601F09FFC04EB50
:1016B0008400144901EB80008068806804EB840199
:1016C000104A02EB81018988084008B1012500E039
:1016D000002504EB84000B4901EB80000069C06821
:1016E00004EB8401074A02EB81018989884304EBFA
:1016F000840102EB81010969C860204601F076FC93
:10170000284670BDD000002010B500240220FFF74D
:10171000FBFEA0210220FFF761FE0220FFF796FFEB
:1017200004460220FFF74EFF204610BD7CB504465C
:101730003D220621684600F089F8D8BB9DF80110CB
:10174000090209B29DF8002041EA0200FEF7BDFE41
:1017500006464FF08E41FEF799FD05461649FEF705
:1017600063FD20609DF80310090209B29DF8022074
:1017700041EA0200FEF7A9FE06464FF08E41FEF751
:1017800085FD05460C49FEF74FFD60609DF805108C
:10179000090209B29DF8042041EA0200FEF795FE15
:1017A00006464FF08E41FEF771FD05460249FEF7F1
:1017B0003BFDA0607CBD0000000034437CB50446C6
:1017C00037220621684600F041F8D8BB9DF8011089
:1017D000090209B29DF8002041EA0200FEF775FEF9
:1017E00006464FF08E41FEF751FD05461649FEF7BD
:1017F0001BFD20609DF80310090209B29DF802202C
:1018000041EA0200FEF761FE06464FF08E41FEF708
:101810003DFD05460C49FEF707FD60609DF805108B
:10182000090209B29DF8042041EA0200FEF74DFECC
:1018300006464FF08E41FEF729FD05460249FEF7A8
:10184000F3FCA0607CBD00000000FA442DE9F041EB
:1018500006460D4617460024A0460220FFF754FE18
:10186000A0210220FFF7BAFD0220FFF7EFFE0128BA
:1018700001D180462FE039460220FFF7AFFD02205C
:10188000FFF7E4FE012802D14FF0020823E0022016
:10189000FFF73AFEA1210220FFF7A0FD0220FFF78B
:1018A000D5FE012802D14FF0030814E000240FE018
:1018B0000220FFF73FFD3055681EA04203DD0220E5
:1018C000FFF748FC02E00220FFF7A2FC601CC4B254
:1018D000AC42EDDB00BF0220FFF774FE4046BDE8DE
:1018E000F081000008B5044620884FF47A7191FB1E
:1018F000F0F085B203F0BCF8009009E00548FFF76E
:101900005DFF0548FFF712FF2946684603F066F8B9
:10191000F4E70000BC820020C882002010B5034616
:101920008B4207D0002003E01C5C0C54441CE0B246
:101930009042F9DB10BD00BFFEE7704770B5002193
:1019400000230F22C47804B3154C246804F4E06427
:10195000C4F5E064210AC1F10403CA40447804FAE2
:1019600003F184781440214309010E4C0678A155F7
:10197000047804F01F050124AC4005786D11AD001A
:1019800005F1E025C5F8004109E0047804F01F05E1
:101990000124AC40044D0678761145F8264070BD10
:1019A0000CED00E000E400E080E100E002490143CA
:1019B000024A1160704700000000FA050CED00E0DB
:1019C00010B5E12001F088FD01F03CFD10BD70B5BF
:1019D00000240FE00021204600F020F8002505E05B
:1019E0000121002000F04CF8681CC5B2802DF7DB07
:1019F000601CC4B2082CEDDB70BD000010B54FF4C4
:101A00007A7002F075FA00221C21034800F05DF89C
:101A1000FFF7DDFF10BD0000DE08002070B50546B1
:101A20000C46072D01DC7F2C00DD70BD05F1B001F7
:101A3000C8B2002100F024F804F00F00002100F0EB
:101A40001FF8102101EB1410002100F019F800BF5D
:101A5000EBE7000010B500240CE000212046FFF762
:101A6000DDFF064901EBC4100122802100F02DF8B2
:101A7000601CC4B2082CF0DB10BD00007E84002086
:101A800070B504460D460020FFF73EFD782100208A
:101A9000FFF7A4FC0020FFF705FC25B14021002042
:101AA000FFF79CFC03E000210846FFF797FC0020AD
:101AB000FFF7F8FB21460020FFF790FC0020FFF71E
:101AC000F1FB0020FFF77EFD70BD2DE9F0410446DB
:101AD0000D4616460020FFF717FD78210020FFF77E
:101AE0007DFC0020FFF7DEFB26B140210020FFF740
:101AF00075FC03E000210846FFF770FC0020FFF7AB
:101B0000D1FB002709E021780020FFF767FC0020C7
:101B1000FFF7C8FB641C781CC7B2AF42F3DB0020A0
:101B2000FFF750FDBDE8F0812DE9F04104460D4678
:101B300016461F4631462846FFF770FF202C33DB40
:101B40007A2C31DC012F02D0022F2BD10EE0174A64
:101B500002EBC5129119A4F1200202EB4202144BD0
:101B600003EB42000622FFF7D9FE1CE00F4A02EB0E
:101B7000C5129119A4F120020E4B03EB02100822AA
:101B8000FFF7CCFE094B6A1C03EBC2129119A4F1BA
:101B90002002084B03EB021202F108000822FFF7B3
:101BA000BDFE00E000BF00BFBDE8F0817E840020E4
:101BB0000C0100202E0300202DE9FF5F0646914610
:101BC0009A46BAF1010F03D0BAF1020F06D102E032
:101BD0004FF0070803E04FF0090800E000BF00BF26
:101BE00037460A2409E00A2097FBF0F087B204EB9D
:101BF00084004FF6FF7101EA4004002FF3D1642006
:101C000094FBF0F084B24D4619E096FBF4F00A2103
:101C100090FBF1F201FB120000F0FF0B0BF1300121
:101C2000C8B253462A460199FFF77EFF0A2094FB6B
:101C3000F0F084B204B904E005EB0800C5B27F2DD2
:101C4000E3DB00BFBDE8FF9F2DE9F047044689466E
:101C500017469846B8F1010F03D0B8F1020F04D12E
:101C600001E0072602E0092600E000BF00BF3D4674
:101C70000BE0207843462A464946FFF755FF641C8F
:101C8000207800B903E0A819C5B27F2DF1DB00BFB1
:101C9000BDE8F0878AB0044620884FF47A7191FB42
:101CA000F0F085B202F0E4FE099056E02B49486856
:101CB000FEF719FC064632460B4629A101A800F0A2
:101CC00027FD01230022114601A8FFF7BDFF23498C
:101CD0000868FEF708FC064632460B4620A101A81C
:101CE00000F016FD01230022194601A8FFF7ACFF02
:101CF0001A498868FEF7F7FB064632460B4618A1DC
:101D000001A800F005FD01230022022101A8FFF730
:101D10009BFF15480068FEF7E6FB064632460B4679
:101D200012A101A800F0F4FC02230022032101A863
:101D3000FFF78AFF02F09CFE4FF47A71B0FBF1F0DE
:101D400086B20123002207213046FFF735FFFFF757
:101D500081FE294609A802F041FEA7E7C8820020BB
:101D600025332E3266000000B0000020564F4C3A5A
:101D7000252E32665600000001460020034A5068B6
:101D800020F44040084350607047000000100240BB
:101D900029B1064A52690243044B5A6104E0034ADE
:101DA00052698243014B5A617047000000100240A3
:101DB00029B1064AD2690243044BDA6104E0034ABE
:101DC000D2698243014BDA61704700000010024083
:101DD00029B1064A92690243044B9A6104E0034A1E
:101DE00092698243014B9A617047000000100240E3
:101DF00030B500210022002400232D4D6D6805F030
:101E00000C0121B1042905D0082923D105E0294D71
:101E1000056022E0274D05601FE0254D6D6805F443
:101E20007012234D6D6805F48034022505EB924253
:101E30001CB9214D554305600BE01D4D6D6805F43F
:101E400000351DB11C4D5543056002E0194D554349
:101E5000056002E0174D056000BF00BF144D6D68BE
:101E600005F0F0010909154D6B5C0568DD40456022
:101E70000F4D6D6805F4E061090A104D6B5C456813
:101E8000DD4085600A4D6D6805F46051C90A0B4D4F
:101E90006B5C4568DD40C560054D6D6805F44041EB
:101EA000890B074D6B5CC568B5FBF3F5056130BD6B
:101EB0000010024000127A0000093D0000000020DE
:101EC000100000201CB5044603220021012002F06E
:101ED000CCFA2549086003220021012002F0C5FA4E
:101EE0002249086000220121084602F0BEFA20497A
:101EF0000860012002F0A8FA1E4908601E480B2164
:101F00001E4B9022CDE900101DA11F4802F036FDA6
:101F10001E480B211E4B8022CDE900101DA11E483A
:101F200002F02CFD1D480D2100234822CDE90010B0
:101F30001BA11D4802F022FD1C480921002340225C
:101F4000CDE900101AA11C4802F018FD1B48082119
:101F50001B4B8022CDE900101AA11C4802F00EFD97
:101F6000002002F0D9F81CBDA0000020A400002031
:101F7000A8000020AC000020980000208400002071
:101F80007265706C79000000D11F0008900000207D
:101F9000860000206D707500E51800088C00002098
:101FA0004E49207461736B00FD3200089C000020D4
:101FB00062617420766F6C000D0D000894000020A3
:101FC000820000206F6C656400000000951C000812
:101FD00008B50446257801F037F9064616E000BF3B
:101FE00029460B48006802F001FC0028F8D00C22BA
:101FF00031460848FFF792FC2021304601F042FAB2
:102000002A4669460448006802F06EFBE7E70000D4
:10201000A4000020C8820020A800002010B501F014
:1020200007F910BD027A837A9A4202DA037AC2680B
:10203000D154027A521C0272704702460020138962
:102040000B400BB1012000E0002070470146888959
:10205000704781817047000070B504460E46002528
:1020600005E0681CC5B2C82D01DD002070BD611EF1
:10207000134A52F821000221FFF7DFFF0028F0D0B9
:10208000611E0F4A52F821003146FFF7E2FF00259A
:1020900005E0681CC5B2C82D01DD0020E6E7611E21
:1020A000074A52F821000121FFF7C7FF0028F0D0AE
:1020B000611E034A52F82100FFF7C8FFC0B2D5E7FE
:1020C000C400002010B500F001F810BD0CB50020D0
:1020D000019000903348006840F480303149086036
:1020E00000BF3048006800F4003000900198401CA8
:1020F0000190009818B90198B0F5A06FF1D1294866
:10210000006800F4003010B10120009001E00020D0
:1021100000900098012843D12348006840F0100047
:10212000214908600846006820F00300086008465E
:10213000006840F0020008601A4840681949486089
:102140000846406848600846406840F4806048603F
:102150000846406820F47C1048600846406840F417
:10216000E81048600846006840F08070086000BFD2
:102170000C48006800F000700028F9D00948406859
:1021800020F00300074948600846406840F002001C
:10219000486000BF0348406800F00C000828F9D1EF
:1021A0000CBD0000001002400020024010B502F0FB
:1021B0004FFC012801D002F02DF910BD10B51348D5
:1021C000006840F001001149086008464068104965
:1021D00008400E494860084600680E4908400B490F
:1021E00008600846006820F48020086008464068BF
:1021F00020F4FE0048604FF41F008860FFF762FF84
:102200004FF000600449086010BD0000001002405B
:102210000000FFF8FFFFF6FE08ED00E010B501F04A
:1022200011F910BD10B540F22551094800F068F9C8
:1022300001280CD1064800F063FAC4B221460548D3
:10224000FFF7F0FE40F22551014800F039F810BDCB
:1022500000380140D482002010B540F225510948D1
:1022600000F04EF901280CD1064800F049FAC4B23A
:1022700021460548FFF7D6FE40F22551014800F0FF
:102280001FF810BD00440040E882002010B540F265
:102290002551094800F034F901280CD1064800F016
:1022A0002FFAC4B221460548FFF7BCFE40F2255183
:1022B000014800F005F810BD00480040FC820020F5
:1022C00010B50022002340F66A14A14200D100BFDD
:1022D0000A1201249440A3B2DC43048010BD21B152
:1022E000828942F40052828104E082894DF6FF73B4
:1022F0001A408281704700001FB501218803FFF753
:1023000067FD01214804FFF753FD01218804FFF711
:102310004FFD4FF4E13000900020ADF80C000C2090
:10232000ADF80A000020ADF80800ADF80600ADF8E1
:102330000400002408E0064951F8241008686946A2
:1023400000F02EF9601CC4B2032CF4DB1FBD0000AA
:10235000B80000201AB1838A0B43838202E0838A8B
:102360008B4383827047000010B58CB00121084672
:10237000FFF70EFD002004901020039000200B902A
:1023800008908020069000200990079005904FF457
:1023900080500A90002420E0264850F8240040682D
:1023A000C8B1244850F824000068001D019021485D
:1023B00050F82400006902901E4951F82410486822
:1023C00001A9FEF728FD1B4951F8241001220868D5
:1023D0008021FFF7BFFF601CC4B2032CDCDB0120AF
:1023E0008DF8030008208DF8010000208DF8020010
:1023F0000E208DF800006846FFF7A0FA11208DF836
:1024000000006846FFF79AFA00240EE0094850F8E9
:102410002400406838B1074951F824100122486867
:102420000221FEF7EFFC601CC4B2032CEEDB0CB003
:1024300010BD0000B800002008B501210420FFF7FE
:10244000C7FC01212020FFF7C3FC01210846FFF74C
:10245000BFFC01210820FEF733FE01212548FEF7CD
:102460002FFE18208DF8030003208DF802004FF492
:102470000070ADF8000069461F48FEF795FD042086
:102480008DF803000002ADF8000069461A48FEF717
:102490008BFD18208DF8030003208DF8020020200A
:1024A000ADF8000069461548FEF77EFD04208DF862
:1024B00003004020ADF8000069461048FEF774FDA7
:1024C00018208DF8030003208DF802004FF480706F
:1024D000ADF8000069460948FEF766FD04208DF856
:1024E0000300C001ADF8000069460448FEF75CFD3A
:1024F00008BD000030001400000801400014014035
:1025000070B50246002400230025002040F66A161C
:10251000B14200D100BFC1F3421501F01F030126F3
:1025200006FA03F3012D02D19689334006E0022D0D
:1025300002D1168A334001E0968A33400C120126FC
:1025400006FA04F41688344013B10CB1012000E0FF
:10255000002070BDF0B503460024002600250020B1
:1025600040F66A17B94200D100BF1846C1F34214C1
:1025700001F01F06012707FA06F5012C01D10C30E6
:1025800004E0022C01D1103000E014301AB10768C9
:102590002F43076002E00768AF430760F0BD00000B
:1025A0002DE9F04786B005460E460024A24600BF3E
:1025B000A1460027B08900B100BF2F462C8A4CF6F7
:1025C000FF700440F08804432C82AC894EF6F3106F
:1025D0000440B08831890843718908430443AC81C1
:1025E000AC8A4FF6FF400440B0890443AC8201A896
:1025F000FFF7FEFB1F48874202D1DDF810A001E083
:10260000DDF80CA0A88900F4004040B10AEBCA0034
:1026100000EB0A1031684900B0FBF1F807E00AEB63
:10262000CA0000EB0A1031688900B0FBF1F86420A1
:10263000B8FBF0F004012009642101FB1089A8898E
:1026400000F4004040B1322000EBC900B0FBF1F0D3
:1026500000F00700044308E0322000EB0910642179
:10266000B0FBF1F000F00F0004432C8106B0BDE890
:10267000F08700000038014008B501208DF8030004
:1026800002208DF8010000208DF8020025208DF831
:1026900000006846FFF752F926208DF800006846D2
:1026A000FFF74CF927208DF800006846FFF746F940
:1026B000012240F225510F48FFF74CFF012240F262
:1026C00025510D48FFF746FF012240F225510B48E6
:1026D000FFF740FF40F225510648FFF7F1FD40F2B9
:1026E00025510548FFF7ECFD40F225510348FFF75F
:1026F000E7FD08BD003801400044004000480040AC
:1027000001468888C0F30800704700BFFEE700005C
:102710000FB4084B10B504A902AA039800F0DEF824
:10272000044602A9002000F05CFC204610BC5DF8C5
:1027300014FB0000E32F000802E008C8121F08C1C4
:10274000002AFAD170477047002001E001C1121F32
:10275000002AFBD1704700002DE9FF5F82B0002105
:10276000DDE90430020DDDF840B0034318D044F633
:102770001050A2F2FF3242431514119801281FD0C5
:10278000A5EB0B00401C5FEA000A4FF000064E4F1D
:10279000DFF83891B046504615D5CAF1000413E071
:1027A000119801244AA3012801D16FEA0B01029874
:1027B000119AC0E90031C0E9024206B0BDE8F09FBD
:1027C000CBF10000DFE704460021404A491842EB04
:1027D0000450CDE9001012E0E00707D032463B4636
:1027E00040464946FDF790FD8046894632463B46C5
:1027F00010461946FDF788FD06460F466410002C6A
:10280000EAD1DDE90401DDE90023BAF1000F06DABF
:10281000FDF77AFD42464B46FDF776FD05E0FDF7F4
:10282000E5FD42464B46FDF7E1FD04460E4600221B
:10283000284BFEF721F803D84FF0FF30014607E0A0
:102840000022254B20463146FDF757FFFDF7FCFFE0
:10285000102409E0002C0ADB0A220023FDF788FE81
:10286000039B30321A55641E50EA0102F2D1641CF7
:10287000039AC4F111031444119A012A03D00122CE
:1028800008430DD10AE0084304D000204FF0110B9B
:10289000119072E7A3EB0B056D1E0DE05B4504DDA7
:1028A0004FF0000205F1010504E003DA4FF00002E9
:1028B000A5F10105002AECD002981199C0E9023176
:1028C000C0E9004579E70000000014400000F03F37
:1028D000300000000000F0430000E03F2DE9FF4F12
:1028E00095B09A46884606460025EEE1252877D120
:1028F00000242746F94A0121039400E0044316F816
:10290000013F203B01FA03F01042F7D130782A282A
:1029100011D06FF02F033078A0F13002092A16D8B9
:10292000039A44F0020402EB820203EB42021044D9
:10293000761C0390EFE758F8042B0392002A03DA81
:10294000504244F40054039044F00204761C307862
:102950002E2816D116F8010F44F004042A280DD0B1
:102960006FF02F023078A0F13003092B09D807EB64
:10297000870302EB4303C718761CF3E758F8047B80
:10298000761C30786C280FD006DC4C2817D06828CD
:102990000DD06A2814D104E0742810D07A280FD101
:1029A0000DE044F400140AE044F4801401E044F41F
:1029B00040147278824202D104F58014761C761C91
:1029C000307866280BD013DC582877D009DC002833
:1029D00075D04528F6D04628F4D047281AD193E17F
:1029E00018E0632835D0642879D0652812D18BE1AE
:1029F000702873D008DC6728F1D069286FD06E2862
:102A00000DD06F2806D1ACE073282CD0752874D077
:102A1000782853D05246179990476D1C54E1C4F35F
:102A20000250022809D003280DD0D8F8001004283D
:102A30000DD00D6008F1040846E1D8F80010EA173F
:102A4000C1E90052F6E7D8F800100D80F2E70D70EA
:102A5000F0E718F8041B8DF8001000208DF8010035
:102A6000EB46012003E058F804BB4FF0FF3061074C
:102A70004FF0000102D40DE009F101018946B9428D
:102A80000FDA8145F8DB1BF809100029F4D108E0C2
:102A900009F1010189468142FADB1BF8091000297E
:102AA000F6D103985346A0EB090721463846179AFA
:102AB00000F080FA284400EB090507E044E008E153
:102AC0000DE01BF8010B524617999047B9F1010927
:102AD000F7D2534621463846179AF2E039E00A21E8
:102AE000C4F302524FF0000B0091022A06D058F8AE
:102AF000040BC117032A09D00AE023E008F10700FC
:102B000020F00702F2E80201904605E000B2C1178A
:102B1000042A01D140B2C117002906DA0A46002171
:102B2000404261EB02012D2202E0220504D52B2256
:102B30008DF80420012203E0E20701D02022F7E70C
:102B4000914657E00A2100E010214FF0000B009160
:102B50000BE010214FF0000B44F004040827009113
:102B600003E008204FF0000B0090C4F30252022A49
:102B700005D058F8040B0021032A08D008E008F11A
:102B8000070020F00702F2E80201904603E080B25D
:102B9000042A00D1C0B24FF0000922072AD53278AA
:102BA000702A07D0DDF800C08CF0100C5CEA0B0C2A
:102BB00005D00EE040228DF80420012208E050EA02
:102BC000010306D030238DF804308DF80520022251
:102BD0009146009B83F0080353EA0B030AD150EAA5
:102BE000010201D1620705D530228DF804204FF093
:102BF00001097F1E3278582A04D039A20C920CAAFF
:102C000002920BE03BA2F9E75B46009AFDF7B0FCAD
:102C10000C9B9B5C029A521E0292137050EA0102B6
:102C2000F2D1029804A9081A00F1200B600702D51E
:102C300024F4803400E001275F4502DDA7EB0B00A0
:102C400000E0002000EB0B01009003984944401A7B
:102C50000390E00306D453462146179A039800F0E8
:102C6000A9F90544002706E001A85246C05D17995E
:102C700090476D1C7F1C4F45F6DBE0030CD5534697
:102C80002146179A039800F095F9054404E0302096
:102C90005246179990476D1C0099481E00900029D4
:102CA000F5DC08E00298029952460078491C02912E
:102CB000179990476D1CBBF10001ABF1010BF1DCE2
:102CC0005BE100F065F90544761C307800287FF45C
:102CD0000DAE19B02846BDE8F08F000009280100AC
:102CE0003031323334353637383961626364656682
:102CF0000000000030313233343536373839414244
:102D00004344454600000000600700D4062708F150
:102D1000070020F00700F0E80223804603F0004C93
:102D20005FEA0C0001D097A009E0200501D596A02C
:102D300005E0E00701D095A001E0AFF24C00139050
:102D4000307823F0004365280CD006DC452809D0F4
:102D500046281DD047287FD13BE0662818D0672839
:102D60007AD136E00021112F01DB112000E0781C20
:102D7000CDE9000104A90CA8FFF7EEFCDDE90D0187
:102D80000C9A4FF0000B07F10109109200914EE0F0
:102D90004FF000400097CDE9011004A90CA8FFF7FF
:102DA000DBFCDDE90D020C9B0F994FF0000B914607
:102DB0001093009211B9791C00EB0109B7EB0900DF
:102DC00003D4C0F1FF3B07F10109A9EB0700019013
:102DD00042E0012F00DA01270021112F01DD11202F
:102DE00000E03846CDE9000104A90CA8FFF7B4FCC7
:102DF000DDE90D010C9A00914FF0000BB9461092DD
:102E000021070FD4009A4A4503DA914601E0A9F15F
:102E10000109B9F1010F05DD109AA9F10101515C19
:102E20003029F4D0B84202DA10F1040F03DA01219C
:102E3000CDE9011010E0002803DC8344A9EB000178
:102E400002E0411C494500DD8946A0EB0B00401C17
:102E500001904FF000400290200705D401984845AA
:102E600002DB4FF0FF30019000208DF84B000298FC
:102E70000DF14B07B0F1004F25D002200C902B2014
:102E80000D90029800280CDA404202902D200D90FF
:102E900007E00A210298FDF755FB3031029007F850
:102EA000011D0C99481E0C900029F2DC02980028A4
:102EB000EFD1791E0D980870307800F0200040F0B6
:102EC000450007F8020D11A8C01BC01D0290139801
:102ED000007800B1012000EB0901019801EBE071DD
:102EE000029801440398401A401E0390E00306D460
:102EF00053462146179A039800F05CF8054413984E
:102F0000007818B15246179990476D1CE00323D5FD
:102F100053462146179A039800F04CF805441BE0ED
:102F2000BBF1000F07DB0098584504DD1098179996
:102F300010F80B0001E01799302052469047019895
:102F40000BF1010B401E05F10105019004D12E206B
:102F50005246179990476D1CB9F10001A9F101097A
:102F6000DEDC05E017F8010B5246179990476D1CFF
:102F70000299481E02900029F4DC53462146179A14
:102F800003989EE62D0000002B00000020000000AA
:102F90002DE9F041044600251E461746880404D456
:102FA00005E039462020B0476D1C641EF9D528463F
:102FB000BDE8F0812DE9F041044600251E4690460B
:102FC000C80301D5302700E02027880404D505E098
:102FD00041463846B0476D1C641EF9D52846BDE809
:102FE000F0810A68531C0B601070704710B500EB3D
:102FF0008003054C14F82320002101E04B1CD9B2BA
:103000009142FBDB10BD0000D00000201CB54FF446
:103010004070FEF7CBFCFDF70BFEFDF71DFEFDF744
:1030200037FEFDF7FEFDFEF7E9FC00F011F900F0B8
:103030005BF801280CD10123002205211EA0FEF718
:1030400003FEFEF707FD00BF00F04EF80128FBD09D
:10305000FEF75AFB012807D101230022062118A000
:10306000FEF7F2FDFEF7F6FC322017490870052046
:103070004870012088702020C8700522093113484B
:10308000FEF74CFC05221049091D1148FEF746FCCD
:103090000D4800F063F800F0D5F90E480F21002329
:1030A0009022CDE900100CA10E4801F067FC01F060
:1030B00029F900BFFEE700006E726620657272009B
:1030C0006D70752065727200AE8200207D00002058
:1030D0007800002088000020437265617454617399
:1030E0006B000000C51E000810B586B018A103C90A
:1030F000CDE90401002418484068C06816490988D1
:10310000884315494968C860052269460A2000F0CD
:1031100011F9052204A90A2000F03EFA052202A9AD
:103120000A2000F007F9002008E002A9095C04AABF
:10313000125C914200D00124411CC8B20528F4DB86
:10314000052269460A2000F027FA204606B010BD85
:1031500054657374000000001450000810B5044654
:103160000E2231492046FEF7D9FB2F4800787D28F2
:1031700002DD7D202C4908702B48C078202802DD14
:1031800020202949C870284840780F2802DD0F20E8
:1031900025494870244880780F2802DD0F202249F5
:1031A000887022484068C0682049098888431F49C0
:1031B0004968C860E021072000F01AFAE22000F018
:1031C0008BF9E12000F088F917484078164A927888
:1031D00040EA0210C1B2042000F00AFA1248017855
:1031E000052000F005FA1048C178122000F000FA1E
:1031F00005220D49091D0B2000F0CEF905220A49D0
:1032000009310A2000F0C8F90522074909311020C8
:1032100000F0C2F90321022000F0EAF903210120A5
:1032200000F0E6F910BD00005084002014500008A2
:1032300010B5044800F0CCF8E22000F04DF9014848
:1032400010BD00005E840020004870475E840020AE
:103250001FB500F0F1F9FFF747FF10B1012004B0EE
:1032600010BD00208DF8000002208DF80100012023
:103270008DF8020020208DF80300052201A90CA082
:10328000FEF74CFB05220DF109010BA0FEF746FBF2
:103290006846FFF763FF0F21062000F0A9F90F2110
:1032A000002000F0A5F900F0CDF80020D7E70000DD
:1032B00045464C590000000055534552000000009F
:1032C00010B500F053F9044604F0100018B1FEF7F1
:1032D00077FB00F01FF804F0200018B1FEF79EFF06
:1032E00000F04AF904F0400018B1FEF797FE00F034
:1032F0009DF8E021072000F07BF910BD07E04FF0BA
:10330000FF310348006801F071FAFFF7D9FFF6E7D3
:10331000A000002010B500200449087000231A46C0
:103320000348006801F018F910BD0000B400002047
:10333000A80000202DE9F04105460E461746124828
:10334000C068C0681049098988430F49C968C860C6
:1033500029460320FEF780FE8046002406E0FF2178
:103360000320FEF779FE3055601CC4B2BC42F6DB88
:103370000548C068C0680449098908430249C9680A
:10338000C8604046BDE8F0811450000870B504469E
:103390000E48C068C0680D49098988430B49C9684F
:1033A000C86021460320FEF757FEFF210320FEF7E9
:1033B00053FE05460548C068C068044909890843AA
:1033C0000249C968C860284670BD00001450000852
:1033D00070B505466020FFF7D9FF06461248C06861
:1033E000C0681149098988430F49C968C8606121CB
:1033F0000320FEF731FE002406E0FF210320FEF744
:103400002BFE2855601CC4B2B442F6DB0648C068E7
:10341000C0680549098908430349C968C860E220B2
:1034200000F05AF8304670BD1450000810B5002363
:103430001A4619460248006801F08EF810BD0000D7
:10344000A400002010B50E484068C0680C490988E7
:1034500088430B494968C8607021072000F0C8F80C
:103460000F21002000F0C4F8044605484068C068F9
:1034700003490988084302494968C860204610BDCD
:103480001450000870B504460D4612484068C068E4
:103490001049098888430F494968C860702107208E
:1034A00000F0A6F8E12000F017F82A462146A020F7
:1034B00000F030F80E21002000F09AF8064605488A
:1034C0004068C06803490988084302494968C860E0
:1034D000304670BD1450000870B504460C48C068F2
:1034E000C0680B49098988430949C968C8602146F1
:1034F0000320FEF7B1FD05460548C068C0680449D1
:10350000098908430249C968C860284670BD00009F
:10351000145000082DE9F04105460E4617461248A2
:10352000C068C0681049098988430F49C968C860E4
:1035300029460320FEF790FD002406E0315D0320BC
:10354000FEF78AFD8046601CC4B2BC42F6DB06482A
:10355000C068C0680449098908430349C968C8604C
:103560004046BDE8F08100001450000810B5072067
:10357000FFF70CFF10BD000010B5012004490870D2
:1035800000231A460348006800F0E6FF10BD000063
:10359000B4000020A80000202DE9F04105460E46A9
:1035A00017461248C068C0681049098988430F4906
:1035B000C968C86045F020010320FEF74DFD804634
:1035C000002405E0315D0320FEF746FD601CC4B217
:1035D000BC42F7DB0548C068C06804490989084354
:1035E0000249C968C8604046BDE8F081145000082F
:1035F00070B504460D460F48C068C0680D4909897A
:1036000088430C49C968C86044F020010320FEF7D4
:1036100023FD064629460320FEF71EFD0548C06827
:10362000C0680449098908430249C968C86030462E
:1036300070BD0000145000081FB501210846FEF7B8
:10364000C7FB01215448FDF73BFD0121C803FEF7EC
:10365000AFFB01210420FEF7BBFB01210820FEF790
:10366000B7FB01212020FEF7B3FB0820ADF80C00CA
:1036700010208DF80F0003208DF80E0003A9474895
:10368000FDF792FC46484068C06845490988884370
:1036900043494968C8604FF40040ADF80C0003A9E5
:1036A0004048FDF781FC3E48C068C0683C49098934
:1036B00008433B49C968C8603820ADF80C001820A1
:1036C0008DF80F0003A93848FDF76EFC48208DF8EF
:1036D0000F001020ADF80C0003A93048FDF764FC82
:1036E0002F48C068C0682E49098908432C49C96819
:1036F000C86000202D4908800846008808800846D8
:10370000008808800846008840F0040008800846C9
:10371000008840F0180008800846008808800846A5
:10372000008840F4807008800846008840F40070EB
:1037300008800846008808800846008840F040005D
:103740000880FFF7D1FC28BB01210846FEF740FBAB
:103750000A208DF8080001208DF80B0003208DF859
:10376000090000208DF80A0002A8FEF7E7F81020F3
:10377000009001208DF8060000208DF804000C2038
:103780008DF805006846FDF7A5FB04210320FDF731
:10379000EBFB00BF1FBD0000000230000014014021
:1037A0001450000800080140000C0140003C00409B
:1037B0002DE9F04105460E46264807682648006870
:1037C000001D00F005FC50B92348006890F82C104B
:1037D0000120884021490968814320480160681C14
:1037E000D8B9D6B11E4948681B49096888601A498A
:1037F00082680968CA6018490968091D82685160B1
:1038000015490968091D8160154A134909684A610B
:1038100011460968491C11601AE07C190E480068BD
:103820004460BC4207D20C480168091D0D4800687D
:1038300000F0F2FB0CE008480168091D0A48006826
:1038400000F0EAFB09480068844201D2074804609E
:10385000BDE8F0814C00002038000020500000201E
:103860008C820020400000203C00002068000020E6
:1038700010B5044600F0F6FB2F480068401C2E49A6
:1038800008602E48006840B92C480460084600686B
:1038900001280DD100F0A6F90AE02948006838B9DE
:1038A00026480068C06AE16A884201D8234804605B
:1038B00024480068401C2349086094F82C1001201B
:1038C00088402149096808431F490860E16A01EB03
:1038D00081011E4A02EB81014868A0608268E260B3
:1038E000211D826851608160E16A01EB8101174A04
:1038F00002EB81026261E16A01EB8101134A52F835
:103900002110491CE26A02EB8202104B43F822109C
:1039100000F0BAFB0A48006868B108480068C06A4D
:10392000E16A884207D24FF0805009490860BFF32E
:103930004F8FBFF36F8F10BD48000020380000206C
:10394000540000206400002050000020FC80002073
:1039500004ED00E010B516E000F084FB0C48C068F0
:10396000C468201D00F034FB0A480068401E094965
:10397000086009480068401E0749086000F084FBA1
:10398000204600F05FF8044800680028E4D110BD2C
:1039900078820020480000204400002070B50446D2
:1039A0000D46206C70B1216CE0680144E160D4E9FF
:1039B0000210884201D32168E1602846226CE16848
:1039C000FCF720FC70BD2DE9F04104460F4615467A
:1039D0004FF00008A66B206C48B9206800282CD155
:1039E000A06801F013F980460020A06025E07DB9B1
:1039F0003946226C6068FCF705FC216C606808445D
:103A00006060D4E90101884217D32068606014E047
:103A10003946226CE068FCF7F5FB216CE068411A3E
:103A2000E1602168E068884203D2216CA068411AF5
:103A3000E160022D01D106B1761E701CA0634046E4
:103A4000BDE8F08110B50446206B00F02DFB204648
:103A500000F02AFB10BD01464A6A22B10A6B1268C7
:103A6000C2F1100000E000207047000030B54FF4B4
:103A7000F043174800F007042CB1C01D20F00700E8
:103A8000134C041B1B1B0246124C22600024114DD8
:103A90006C60D018083820F007000F4C206000241C
:103AA0000D4D2D686C600C4D2D682C601146441A2C
:103AB0004C60094C24680C60084D4C682C60084D23
:103AC0004C682C604FF00044064D2C6030BD000067
:103AD000FC08002018000020200000202800002002
:103AE000240000203400002000BFFFF733FF064809
:103AF00000680128F9D94FF0805004490860BFF3ED
:103B00004F8FBFF36F8FF0E7FC80002004ED00E0E3
:103B100010B5044654B10020A06020600021E1608F
:103B200000231A461946204600F016FD10BD2DE967
:103B3000F04106460D4617469846069C0DB924608E
:103B400000E02760E66325640121204600F0B4FC14
:103B5000BDE8F0812DE9FF5F80460E469146DDE924
:103B60000E7A109CA9F10100216B01EB800B2BF068
:103B7000070B86B1002507E0715D04F13400415563
:103B8000705D00B902E06D1C102DF5D300BF00215F
:103B90004320015502E0002084F83400102F00D3A8
:103BA0000F27E76267640020A064201D00F031FA4F
:103BB00004F1180000F02DFA2461C7F11000A06193
:103BC00064620020E06484F8500041465846039A3D
:103BD00000F07CF92060BAF1000F01D0CAF8004073
:103BE000BDE8FF9F10B5002407E004EB84010F4AF5
:103BF00002EB810000F000FA641C102CF5D30C4895
:103C000000F0FAF90B4800F0F7F90B4800F0F4F96E
:103C10000A4800F0F1F90A4800F0EEF904480949B1
:103C2000086004480849086010BD0000FC800020BE
:103C30003C82002050820020648200207882002094
:103C40008C8200203C0000204000002010B501467E
:103C5000164800E0006803688B42FBD302464368C5
:103C600013448B4204D143684C68234443600146AB
:103C70000A464B6813440468A34211D10C4C0368F4
:103C80002468A34208D04B680468646823444B60EE
:103C900003681B680B6005E0054B1B680B6001E0C7
:103CA00003680B60884200D0016010BD180000203E
:103CB0002000002070B5054600F0D4F9A86B08B9C3
:103CC000012400E0002400F0DFF9204670BD70B54B
:103CD000054600F0C7F9A86BE96B884201D10124C1
:103CE00000E0002400F0D0F9204670BD09480068CB
:103CF000006808B9012000E0002020B14FF0FF303B
:103D00000549086005E003480068C068006802498A
:103D1000086070473C0000206800002000BFBF2002
:103D200080F31188BFF34F8FBFF36F8F00BF00BFC9
:103D3000FEE770B5044600F095F994F9455010E09F
:103D4000606A08B9012000E0002038B904F12400BD
:103D500001F028F818B100F055FA00E003E0681E01
:103D600045B2002DECDC00BFFF2084F8450000F0D8
:103D70008BF900F077F994F9445010E0206908B904
:103D8000012000E0002048B904F1100001F00AF819
:103D900008B100F037FA681E45B200E001E0002DDE
:103DA000ECDC00BFFF2084F8440000F06DF970BD2A
:103DB0002DE9F04104464FF0000800F0D9FA3548EB
:103DC000006808B9FFF752FE334800682040002819
:103DD0005BD1B4B104F10800A04212D9083404F058
:103DE000070078B104F00700C0F108002044A042A9
:103DF00005D904F00700C0F10800044402E00024E3
:103E000000E00024002C40D02448006884423CD8C4
:103E1000234E3046056801E02E462D686868A042B2
:103E200002D228680028F7D11A48006885422CD0B1
:103E3000306800F10808286830606868001B1028A6
:103E400007D92F196868001B78606C603846FFF747
:103E5000FDFE124968680968081A1049086008469A
:103E6000006810490968884203D20C4800680D496F
:103E7000086009496868096808436860002028608C
:103E800009480068401C0849086001F00FF84046E6
:103E9000BDE8F08120000020340000202400002034
:103EA00018000020280000202C0000200648006890
:103EB00030B10549096801F14800896C491C01606D
:103EC000014800687047000038000020001F4FF0D4
:103ED00080730360001F21F001030360001F034B88
:103EE0000360143802602038704700001D3D000850
:103EF00001B508E04FF47A7000F00AF8BDF8000050
:103F0000401E80B20090BDF800000028F2D108BD2C
:103F100001B581B00020009009E00220009000BFB0
:103F2000BDF80000411E89B200910028F8D1BDF80B
:103F30000400411E89B201910028EED10CBD0000A1
:103F40001748184908601848486040208872C872AD
:103F50000020087248721548C86015480861154865
:103F60001549086010483C30486040208872C8728B
:103F70000020087248721148C86011480861114851
:103F80001149086000204860402088720020C872F3
:103F9000087248720D48C860002008617047000030
:103FA00000380140D48200204400024010830020E9
:103FB0005083002000440040E882002090830020CD
:103FC000D083002000480040FC82002010840020A4
:103FD00001460A69D1E901309860D1E901035860CE
:103FE0005068884201D188685060002008611068DC
:103FF000401E10601068704700F1080141604FF0EA
:10400000FF31816000F10801C160016100210160A0
:10401000704700210161704710B502460B685C1CB7
:104020000CB9106907E002F1080000E0406844683C
:1040300024689C42FAD944684C604C68A16088604E
:1040400041600A611468641C146010BD42684A60D3
:1040500093688B60936859609160086103685B1C8A
:104060000360704700BFBF2080F31188BFF34F8FFC
:10407000BFF36F8F00BF03480068401C0149086010
:10408000704700001400002006480068401E0549E3
:1040900008600846006820B9002080F3118800BF3E
:1040A00000BF70471400002070B506463546FEB1CB
:1040B000083D2C460F49606809680840C0B1206877
:1040C000B0B90C49606809688843606000F050F935
:1040D0000949606809680844074908602046FFF7F5
:1040E000B5FD06480068401C0449086000F0DEFE8B
:1040F00070BD0000340000202400002030000020AB
:1041000000204FF0E02108618861024848610720E3
:10411000086170473F19010070B50546FFF7A2FF1F
:1041200015B92948006800E028460446201DFFF71D
:104130004FFF78B9E06A00EB8000244951F8200075
:1041400040B994F82C100120884021490968814326
:104150001F480160A06A18B104F11800FFF738FF8A
:104160001C480068401C1B490860174800688442CE
:1041700009D1211D1848FFF769FF18480068401C45
:104180001649086006E016480068401E1449086099
:10419000FFF7ACFDFFF778FF0B480068844202D0C0
:1041A0002046FFF74FFC0F48006858B106480068EA
:1041B000844207D14FF080500B490860BFF34F8F06
:1041C000BFF36F8F70BD000038000020FC8000201E
:1041D000500000206400002078820020440000206D
:1041E000480000205400002004ED00E00349096865
:1041F00001600349096841607047000060000020C9
:104200004C00002001200149086070475C0000203C
:1042100070B505460C460548016818312846FFF779
:10422000FBFE01212046FFF7C3FA70BD38000020D5
:104230002DE9F04706460F4634464FF00109002E9F
:104240005AD0606CB84201D23D4600E0656CE06A2D
:10425000A84251D0A06C01284ED1D4F82C80E56240
:10426000A06900F0004010B9C5F11000A06108EB92
:104270008801224A02EB81016069884201D1012054
:1042800000E00020C0B3201DFFF7A2FE40B994F863
:104290002C10012088401A490968814318480160A0
:1042A00094F82C10012088401549096808431449E6
:1042B0000860E16A01EB8101104A02EB8101486864
:1042C000A0608268E260211D826851608160E16ABD
:1042D00001EB8101094A02EB81026261E16A01EBB3
:1042E0008101064A52F82110491CE26A02EB82025F
:1042F000024B43F8221000BFBDE8F087FC8000208D
:10430000500000201CB5124800210B46A822CDE920
:10431000001010A1114800F031FB0446012C14D10B
:1043200000BFBF2080F31188BFF34F8FBFF36F8FA3
:1043300000BF4FF0FF300A490860012009490860BA
:1043400000200949086000F04BF8084800681CBDCF
:104350006C00002049444C4500000000E93A000888
:1043600068000020540000204C0000207000002055
:1043700002480068401C0149086070477400002032
:104380001248006818B10120114908601DE00020A2
:104390000F4908600F480068B0FA80F0C0F11F01B3
:1043A00001EB81020C4B03EB8200426852684260D1
:1043B00000F108024368934202D1426852684260A9
:1043C0004268D268054B1A6000BF70477400002035
:1043D0005C00002050000020FC80002038000020FD
:1043E00010B50A48006840F47F0008490860084694
:1043F000006840F07F400860FFF782FE002004491B
:104400000860FBF7B3FE002010BD000020ED00E0C7
:104410001400002010B500BFBF2080F31188BFF347
:104420004F8FBFF36F8F00BF00F028FB18B14FF024
:1044300080500449086000BF002080F3118800BF4D
:1044400010BD000004ED00E02DE9F0410446012616
:10445000002722460021012000F007F805462846E3
:10446000FFF756FB2846BDE8F0812DE9F8430446E6
:104470000E4617460025DCB1681EB0FBF4F0B042D2
:1044800016D304FB06F010F1490F11D804FB06F90E
:1044900009F14800FFF78CFC05464DB1A84608F12C
:1044A00048083B464246314620460095FFF73FFB11
:1044B0002846BDE8F88300002DE9F04105460E4688
:1044C00001272C46002C41D0E06B00283ED0B91EBD
:1044D000E06BB1FBF0F0216C884237D3FFF7C2FDEF
:1044E000D4E90F12206801FB0200A0600020A06345
:1044F00020686060E06B401E226C216800FB0211A6
:10450000E160FF2084F8440084F845009EB92069EA
:1045100008B9012000E00020A8B904F1100000F063
:1045200041FC80B14FF080500A490860BFF34F8FC3
:10453000BFF36F8F07E004F11000FFF75DFD04F19A
:104540002400FFF759FDFFF79FFD00E000273846E4
:10455000BDE8F08104ED00E02DE9FF4383B007469C
:1045600088461D464FF000093C4600BFFFF77AFD24
:10457000A06BE16B884201D3022D28D12A46414627
:104580002046FFF720FA0646606A08B9012000E0DD
:10459000002068B904F1240000F004FC88B14FF059
:1045A000805032490860BFF34F8FBFF36F8F08E030
:1045B0003EB14FF080502D490860BFF34F8FBFF3DD
:1045C0006F8FFFF761FD012007B0BDE8F08305980C
:1045D00018B9FFF759FD0020F6E7B9F1000F04D133
:1045E00001A8FFF703FE4FF00109FFF74DFDFFF7AC
:1045F000BFFEFFF737FD94F94400401C10B90020BE
:1046000084F8440094F94500401C10B9002084F857
:104610004500FFF739FD05A901A800F07FF9F0B9C1
:104620002046FFF754FBA0B104F110000599FFF7F5
:10463000EFFD2046FFF77DFB00F038FC002895D108
:104640004FF0805009490860BFF34F8FBFF36F8F61
:104650008CE72046FFF76DFB00F028FC86E720463C
:10466000FFF767FB00F022FC0020ADE704ED00E05F
:104670002DE9F04705460E462C4600BFBF21EFF35B
:10468000118081F31188BFF34F8FBFF36F8F00BF8D
:104690008046D4F83890E06B48451DD994F945A080
:1046A00009F10100A0630AF1010070B9606A08B95C
:1046B000012000E0002068B904F1240000F072FB42
:1046C00040B13EB10120306004E00AF1010040B287
:1046D00084F84500012700E0002700BF88F3118817
:1046E00000BF3846BDE8F0872DE9F74183B00546A5
:1046F0000F464FF000082C4600BFFFF7B3FCA66B37
:10470000F6B139462046FFF749F9701EA0632069CB
:1047100008B9012000E0002060B904F1100000F0A9
:1047200041FB38B14FF080502F490860BFF34F8FE5
:10473000BFF36F8FFFF7A8FC012006B0BDE8F08142
:10474000059818B9FFF7A0FC0020F6E7B8F1000FB4
:1047500004D101A8FFF74AFD4FF00108FFF794FCD0
:10476000FFF706FEFFF77EFC94F94400401C10B9E9
:10477000002084F8440094F94500401C10B9002042
:1047800084F84500FFF780FC05A901A800F0C6F8F1
:10479000F0B92046FFF78EFAA0B104F12400059984
:1047A000FFF736FD2046FFF7C4FA00F07FFB002834
:1047B000A3D14FF080500C490860BFF34F8FBFF377
:1047C0006F8F9AE72046FFF7B4FA00F06FFB94E78B
:1047D0002046FFF7AEFA00F069FB2046FFF76AFAC1
:1047E00000288AD00020A8E704ED00E02DE9F3417D
:1047F00082B0054600272C46B84600BFFFF732FCC2
:10480000A66BFEB1701EA063206810B9FFF74EFBC7
:10481000A060206908B9012000E0002060B904F11F
:10482000100000F0BFFA38B14FF080503A490860EC
:10483000BFF34F8FBFF36F8FFFF726FC012004B04B
:10484000BDE8F081039818B9FFF71EFC0020F6E7D9
:104850001FB96846FFF7CAFC0127FFF715FCFFF7F1
:1048600087FDFFF7FFFB94F94400401C10B90020BE
:1048700084F8440094F94500401C10B9002084F8E5
:104880004500FFF701FC03A9684600F047F840BB6C
:104890002046FFF70FFAF0B1206838B9FFF7E2FBC6
:1048A000A06800F009FA8046FFF7EEFB04F124004F
:1048B0000399FFF7ADFC2046FFF73BFA00F0F6FA4C
:1048C00000289BD14FF0805013490860BFF34F8FF1
:1048D000BFF36F8F92E72046FFF72BFA00F0E6FA5E
:1048E0008CE72046FFF725FA00F0E0FA2046FFF7B4
:1048F000E1F9002882D0B8F1000F0BD0FFF7B2FB2E
:104900002046FFF7A8F806463146A068FFF790FC5E
:10491000FFF7BAFB002092E704ED00E070B5064611
:104920000C46FFF79FFB134802687068131A206853
:10493000401C08B9002519E00F4930680968884211
:1049400006D07068904203D80125002020600DE059
:104950002068984207D92068C01A20603046FFF7C7
:1049600045FC002502E0002020600125FFF78CFBBC
:10497000284670BD4C000020600000202DE9FF4F4C
:1049800085B0804689461746DDE912ABB800FFF7CF
:104990000FFA064656B15420FFF70AFA04460CB146
:1049A000266304E03046FFF77FFB00E000247CB183
:1049B0000020CDE900ABCDE902403A4649464046E9
:1049C000089BFFF7C7F82046FEF752FF012501E0DC
:1049D0004FF0FF35284609B0BDE8F08F2DE9F047CC
:1049E000044688464FF00009FFF7C2FC16480668E7
:1049F000206800EB08052068B04207D92068A8426B
:104A00000BD9B54209D94FF0010906E02068A84248
:104A100001D8B54201D94FF001092560B9F1000F65
:104A200003D0A81B0021FEF7C3FE00F03FFA0746A3
:104A30003FB94FF0805005490860BFF34F8FBFF377
:104A40006F8F4846BDE8F0874C00002004ED00E081
:104A50000549096809B9012005E00449096809B94F
:104A6000022000E000207047540000207400002065
:104A700001490868704700004C0000202DE9F04112
:104A800000275748006800287ED156480068451C1A
:104A9000544805608DB95448D0F8008053480068E8
:104AA000514908605148C0F8008051480068401CD6
:104AB0004F490860FFF71AF900BF4E480068854269
:104AC00076D300BF48480068006808B9012000E0BC
:104AD000002020B14FF0FF304649086067E04248AF
:104AE0000068C068C4686668B54202D24148066082
:104AF0005DE06069D4E902128A60D4E902214A606B
:104B0000211D42688A4201D1E16841600022626150
:104B10000168491E0160A06A98B1A06AD4E9071231
:104B20008A60D4E907214A6004F1180142688A4288
:104B300001D1216A41600022A2620168491E016020
:104B400000BF94F82C10012088402B4909680843C5
:104B500029490860E16A01EB8101284A02EB8101E1
:104B60004868A0608268E260211D826851608160AF
:104B7000E16A01EB8101214A02EB81026261E16A93
:104B800001EB81011D4A00E022E052F82110491C8E
:104B9000E26A02EB8202194B43F822101849E06ADC
:104BA0000968C96A88428DD301278BE700E000BFFE
:104BB00013480068C06A00EB8000104951F82000DB
:104BC000012800D901270F48006800B1012704E03F
:104BD0000D480068401C0C4908603846BDE8F0816B
:104BE000740000204C0000203C0000204000002009
:104BF000600000206800002050000020FC800020A1
:104C0000380000205C0000205800002070B50546E8
:104C10002C460026002D48D0A06C401EA064616C7C
:104C2000E06A884241D0A06C00283ED1201DFFF7E9
:104C3000CFF940B994F82C10012088401C4909682C
:104C400081431B480160606CE062E06AC0F11000C3
:104C5000A06194F82C100120884015490968084388
:104C600013490860E16A01EB8101124A02EB8101FC
:104C70004868A0608268E260211D8268516081609E
:104C8000E16A01EB81010B4A02EB81026261E16A98
:104C900001EB8101074A52F82110491CE26A02EB3C
:104CA0008202044B43F822100126304670BD0000FA
:104CB00050000020FC80002070B505462C460026E0
:104CC000002D67D03449E06A0968C96A88425AD21F
:104CD000A06900F0004028B92F480068C06AC0F100
:104CE0001000A061E16A01EB81012C4A02EB810115
:104CF0006069884201D1012000E00020E0B3201D5E
:104D0000FFF766F940B994F82C1001208840244937
:104D100009688143224801601F480068C06AE06258
:104D200094F82C10012088401D49096808431C494B
:104D30000860E16A01EB8101184A02EB81014868D1
:104D4000A0608268E260211D826851608160E16A32
:104D500001EB8101114A02EB81026261E16A01EB20
:104D600081010E4A52F82110491CE26A02EB8202CC
:104D70000A4B43F8221004E0FFE707480068C06AC6
:104D8000E062012606E00449606C0968C96A88424D
:104D900000D20126304670BD38000020FC80002083
:104DA0005000002070B50346D868C168886AD1E910
:104DB0000745A560D1E90754656001F1180445680D
:104DC000A54201D10C6A446000258D620468641E0E
:104DD00004603048006800283DD14869D1E90245A7
:104DE000A560D1E9025465600C1D4568A54201D15A
:104DF000CC68446000254D610468641E046091F82D
:104E00002C400120A040244C24682043224C2060E8
:104E1000CC6A04EB8404214D05EB8404606888604F
:104E20008568CD600C1D85686C608460CC6A04EB7D
:104E300084041A4D05EB84054D61CC6A04EB8404AF
:104E4000164D55F82440641CCD6A05EB8505134EBC
:104E500046F8254010E0124C6068C86185680D6214
:104E600001F1180485686C6084600D4D8D622C46DC
:104E70002468641C2C6000BF0A4CC86A2468E46A79
:104E8000A04204D901220120074C206000E000224A
:104E9000104670BD7400002050000020FC800020EF
:104EA00064820020380000205C00002070B50024DF
:104EB0000026FFF7D7F84B480068401E49490860B4
:104EC0000846006800287DD147480068002879D04E
:104ED0005BE04648C068C468A06AD4E907128A60EB
:104EE000D4E907214A6004F1180142688A4201D1DD
:104EF000216A41600022A2620168491E0160606966
:104F0000D4E902128A60D4E902214A60211D426874
:104F10008A4201D1E1684160002262610168491E54
:104F2000016094F82C100120884031490968084339
:104F30002F490860E16A01EB81012E4A02EB8101F1
:104F40004868A0608268E260211D826851608160CB
:104F5000E16A01EB8101274A02EB81026261E16AA9
:104F600001EB8101234A52F82110491CE26A02EB4D
:104F70008202204B43F822101F49E06A0968C96A7F
:104F8000884202D301201D4908601848006808B90A
:104F9000012000E0002000289BD00CB1FEF7A6FE07
:104FA0001748056865B100BFFFF768FD10B1012023
:104FB000124908606D1E002DF6D1002010490860CE
:104FC0000E4800E009E0006838B1012630070D49BD
:104FD0000860BFF34F8FBFF36F8FFFF755F8304670
:104FE00070BD000074000020480000206482002092
:104FF00050000020FC800020380000205C000020D1
:105000005800002004ED00E00800000000100140FE
:105010000D000000080000000014014000800000A6
:105020000008014020000000000C014010000000BA
:10503000000C014008000000000C01405C5000081A
:1050400000000020FC0800002E090008E4550008BC
:10505000FC0800208483000048270008412D01023D
:10506000030404180A0607080902040608AA010135
:1050700058720F100C43165243FF4316464C5918F2
:105080001A6402013013D4821B20E8041AFC0411B4
:105090001430014012381240123C43400532081AC5
:1050A00010144A1008291442015D0C01400208291D
:1050B000143A202C5C0140800891422F1A070211FB
:1050C0001B147F021116242A7F2A12166264081309
:1050D00023263649552250430503341C22411C41E6
:1050E000221C2A15083E08141A0806297E1BA060F7
:1050F000522901211A600B11162010080402263EC5
:105100005149453E1B427F6B16426151494616216B
:1051100041454B31161814127F1016274545453965
:10512000163C4A4949301C01710962163649494901
:105130003626064949291E4336362A56062B0814B8
:10514000782A1401297E1314081602015109061643
:10515000324959513E167C1211127C3A7F3C163E60
:10516000414141221A7F053A1C1212411E7F090952
:105170000901181449497A1A7FA11A7F421A7F4EF1
:105180001E2040413F0112295B1B7F400111167F09
:10519000020C027F3E7F0408107F483A3E3C1A060C
:1051A0000C1C51215E0C141929461A465412311652
:1051B00001017F01011A3F35123F1E1F2040201FB1
:1051C0000C1A380C166314081463160708700807C5
:1051D00019EF234543198B211B552A0219781A41CF
:1051E0007D16040201020429712240290B111620A8
:1051F00054545478167F484444382E38444444204C
:105200000613487F1A3818121816087E0901021D65
:1052100018A4A4A4E425080404781B447D3B1D4085
:1052200080847D5F341028441B417F121C7C04184D
:105230001E3A7C242948123816FC242424181A18F3
:10524000053AFC1812081A4854122016043F44402C
:1052500020163C4040207C1A1CC01A1C0C14304004
:105260003C2B44284F161CA0A0A07C2D4464544C19
:105270005B011072F84333301C100C0603912C4074
:10528000C0780319612A0403212D7088FC0829269F
:105290001820FF211E14F008F033E0184D211C03E4
:1052A0001E11338870000C101E2123241927211091
:1052B00010160E45E01804021C071820E43D0204F5
:1052C00018E0692C20180707174080F08040403F05
:1052D0000202010F01022842F01D0101011F049189
:1052E0002B80B066B1191D2901913A30CE492C149A
:1052F0006018043C6018061D1EE010080810721F9C
:105300000F102020100FF05310F83620203F2020DF
:105310003C700808C21E3028242221441E30088810
:105320008848082E1820202011CC3BC020322707A7
:105330000424243F241AF8202308084B192120367E
:10534000E0108888184B0F11101E380808C8382044
:1053500021523F1A702E29608F1C222121221C907D
:10536000111D31222211901961CAC0C26A80C6592A
:10537000081C40201050170102040810204A400168
:10538000114A04012119152A403219251B0402F281
:105390001B7048D13AF0501A360F1EC030C828E8AA
:1053A0007028080718272423140B6F2A387E280D2D
:1053B000203C23020227382008F888889F4B203F92
:1053C000F01BC0303F1B083830191019781B08F843
:1053D0000F194039201B100F103E8888E808101064
:1053E000AC23201810112A035E2940223829402CB2
:1053F000221E024019A41809F808203F21010121AA
:10540000252A0852298129424149112EC0808080D5
:105410007F0E2FF888C0281808501C0126382F2925
:1054200040292F29801B20301012F81AF81413205D
:105430003F190229204B30C0601A2074123F4BE004
:1054400010B06B0F10B029D01AF0301980220179FA
:10545000203F18242438504FC04C888870C0140C4A
:1054600030204B7088C11738202121221C3A189F08
:105470004A188239A049D0112A1F90121F24087897
:10548000881BC838151C07380E60191A1AF8201125
:1054900014033C0714073C0348140818688080680C
:1054A000180820302C03032C30200838C82F5950FE
:1054B000298F29102F203826212020681145FE022F
:1054C0000202257F4040401A0CE0611C0106380BA7
:1054D000191D42FE191D527F1A04120211045A802E
:1054E000011930D91D391621180819242222223F0A
:1054F00020AB390F115F3F112020110E21311A0E00
:10550000104B2011104B88F8102A10B359401A1F65
:105510003F2B22130F16F0888888181A20D029D123
:10552000497A21176B94949493603960190F4C2039
:105530003F21F354809898793059121AC02719D115
:10554000193039311F203F24022D30212A081289B9
:105550003069D7294B2903190BC96079A019BF2BD2
:10556000201FDD390F9C80FFA1E0191229D03BA03C
:10557000FF0C3950194112208A01C01B3324012A23
:10558000190F3AE0413952290F392349603C103F45
:10559000202C29053F010E3008060170291038081B
:1055A0000F300C030C300F2C49A14E312E0E312040
:1055B0000C29621D818E70183059D1211721302C91
:1055C00022213012AE100B104081CFA1C8A6A83FF7
:1055D000D32010D580D9F1DA12DB4020028D14A43B
:0455E000A6AF000072
:0400000508000131BD
:00000001FF
